{
  "contractName": "DVideo",
  "abi": [
    {
      "inputs": [],
      "payable": false,
      "stateMutability": "nonpayable",
      "type": "constructor"
    },
    {
      "anonymous": false,
      "inputs": [
        {
          "indexed": false,
          "internalType": "uint256",
          "name": "id",
          "type": "uint256"
        },
        {
          "indexed": false,
          "internalType": "string",
          "name": "hash",
          "type": "string"
        },
        {
          "indexed": false,
          "internalType": "string",
          "name": "title",
          "type": "string"
        },
        {
          "indexed": false,
          "internalType": "address",
          "name": "author",
          "type": "address"
        },
        {
          "indexed": false,
          "internalType": "uint256",
          "name": "data",
          "type": "uint256"
        }
      ],
      "name": "VideoUploaded",
      "type": "event"
    },
    {
      "constant": true,
      "inputs": [],
      "name": "name",
      "outputs": [
        {
          "internalType": "string",
          "name": "",
          "type": "string"
        }
      ],
      "payable": false,
      "stateMutability": "view",
      "type": "function"
    },
    {
      "constant": true,
      "inputs": [],
      "name": "videoCount",
      "outputs": [
        {
          "internalType": "uint256",
          "name": "",
          "type": "uint256"
        }
      ],
      "payable": false,
      "stateMutability": "view",
      "type": "function"
    },
    {
      "constant": true,
      "inputs": [
        {
          "internalType": "uint256",
          "name": "",
          "type": "uint256"
        }
      ],
      "name": "videos",
      "outputs": [
        {
          "internalType": "uint256",
          "name": "id",
          "type": "uint256"
        },
        {
          "internalType": "string",
          "name": "hash",
          "type": "string"
        },
        {
          "internalType": "string",
          "name": "title",
          "type": "string"
        },
        {
          "internalType": "address",
          "name": "author",
          "type": "address"
        },
        {
          "internalType": "uint256",
          "name": "data",
          "type": "uint256"
        }
      ],
      "payable": false,
      "stateMutability": "view",
      "type": "function"
    },
    {
      "constant": false,
      "inputs": [
        {
          "internalType": "string",
          "name": "_videoHash",
          "type": "string"
        },
        {
          "internalType": "string",
          "name": "_title",
          "type": "string"
        }
      ],
      "name": "uploadVideo",
      "outputs": [],
      "payable": false,
      "stateMutability": "nonpayable",
      "type": "function"
    }
  ],
  "bytecode": "0x6080604052600080556040518060400160405280600681526020017f44566964656f000000000000000000000000000000000000000000000000000081525060019080519060200190610053929190610066565b5034801561006057600080fd5b5061010b565b828054600181600116156101000203166002900490600052602060002090601f016020900481019282601f106100a757805160ff19168380011785556100d5565b828001600101855582156100d5579182015b828111156100d45782518255916020019190600101906100b9565b5b5090506100e291906100e6565b5090565b61010891905b808211156101045760008160009055506001016100ec565b5090565b90565b6109438061011a6000396000f3fe608060405234801561001057600080fd5b506004361061004c5760003560e01c806306fdde03146100515780638a5447c5146100d4578063c61b5f4c14610226578063e6821bf514610244575b600080fd5b610059610398565b6040518080602001828103825283818151815260200191508051906020019080838360005b8381101561009957808201518184015260208101905061007e565b50505050905090810190601f1680156100c65780820380516001836020036101000a031916815260200191505b509250505060405180910390f35b610224600480360360408110156100ea57600080fd5b810190808035906020019064010000000081111561010757600080fd5b82018360208201111561011957600080fd5b8035906020019184600183028401116401000000008311171561013b57600080fd5b91908080601f016020809104026020016040519081016040528093929190818152602001838380828437600081840152601f19601f8201169050808301925050505050505091929192908035906020019064010000000081111561019e57600080fd5b8201836020820111156101b057600080fd5b803590602001918460018302840111640100000000831117156101d257600080fd5b91908080601f016020809104026020016040519081016040528093929190818152602001838380828437600081840152601f19601f820116905080830192505050505050509192919290505050610436565b005b61022e6106dd565b6040518082815260200191505060405180910390f35b6102706004803603602081101561025a57600080fd5b81019080803590602001909291905050506106e3565b6040518086815260200180602001806020018573ffffffffffffffffffffffffffffffffffffffff1673ffffffffffffffffffffffffffffffffffffffff168152602001848152602001838103835287818151815260200191508051906020019080838360005b838110156102f25780820151818401526020810190506102d7565b50505050905090810190601f16801561031f5780820380516001836020036101000a031916815260200191505b50838103825286818151815260200191508051906020019080838360005b8381101561035857808201518184015260208101905061033d565b50505050905090810190601f1680156103855780820380516001836020036101000a031916815260200191505b5097505050505050505060405180910390f35b60018054600181600116156101000203166002900480601f01602080910402602001604051908101604052809291908181526020018280546001816001161561010002031660029004801561042e5780601f106104035761010080835404028352916020019161042e565b820191906000526020600020905b81548152906001019060200180831161041157829003601f168201915b505050505081565b600082511161044457600080fd5b600081511161045257600080fd5b600073ffffffffffffffffffffffffffffffffffffffff163373ffffffffffffffffffffffffffffffffffffffff16141561048c57600080fd5b60008081548092919060010191905055506040518060a0016040528060005481526020018381526020018281526020013373ffffffffffffffffffffffffffffffffffffffff16815260200160018152506002600080548152602001908152602001600020600082015181600001556020820151816001019080519060200190610517929190610869565b506040820151816002019080519060200190610534929190610869565b5060608201518160030160006101000a81548173ffffffffffffffffffffffffffffffffffffffff021916908373ffffffffffffffffffffffffffffffffffffffff160217905550608082015181600401559050507f90daba497ab07e5d32b9cc5fd2b8352124d5a5adffc885eec603663213fd4eae60005483833360016040518086815260200180602001806020018573ffffffffffffffffffffffffffffffffffffffff1673ffffffffffffffffffffffffffffffffffffffff168152602001848152602001838103835287818151815260200191508051906020019080838360005b83811015610634578082015181840152602081019050610619565b50505050905090810190601f1680156106615780820380516001836020036101000a031916815260200191505b50838103825286818151815260200191508051906020019080838360005b8381101561069a57808201518184015260208101905061067f565b50505050905090810190601f1680156106c75780820380516001836020036101000a031916815260200191505b5097505050505050505060405180910390a15050565b60005481565b6002602052806000526040600020600091509050806000015490806001018054600181600116156101000203166002900480601f0160208091040260200160405190810160405280929190818152602001828054600181600116156101000203166002900480156107955780601f1061076a57610100808354040283529160200191610795565b820191906000526020600020905b81548152906001019060200180831161077857829003601f168201915b505050505090806002018054600181600116156101000203166002900480601f0160208091040260200160405190810160405280929190818152602001828054600181600116156101000203166002900480156108335780601f1061080857610100808354040283529160200191610833565b820191906000526020600020905b81548152906001019060200180831161081657829003601f168201915b5050505050908060030160009054906101000a900473ffffffffffffffffffffffffffffffffffffffff16908060040154905085565b828054600181600116156101000203166002900490600052602060002090601f016020900481019282601f106108aa57805160ff19168380011785556108d8565b828001600101855582156108d8579182015b828111156108d75782518255916020019190600101906108bc565b5b5090506108e591906108e9565b5090565b61090b91905b808211156109075760008160009055506001016108ef565b5090565b9056fea265627a7a72315820ede2f894d6fea447e6dfd357ee10dca763dee2e1e4ab88624270d086db61f2d164736f6c63430005100032",
  "source": "pragma solidity ^0.5.0;\n\ncontract DVideo {\n  uint public videoCount = 0;\n  string public name = \"DVideo\";\n  mapping(uint => Video) public videos;\n\n  struct Video {\n    uint id;\n    string hash;\n    string title;\n    address author;\n    uint data;\n\n  }\n\n  event VideoUploaded(\n    uint id,\n    string hash,\n    string title,\n    address author,\n    uint data\n\n  );\n\n  constructor() public {\n  }\n\n  function uploadVideo(string memory _videoHash, string memory _title) public {\n    // Make sure the video hash exists\n    require(bytes(_videoHash).length > 0);\n    // Make sure video title exists\n    require(bytes(_title).length > 0);\n    // Make sure uploader address exists\n    require(msg.sender!=address(0));\n\n    // Increment video id\n    videoCount ++;\n\n    // Add video to the contract\n    videos[videoCount] = Video(videoCount, _videoHash, _title, msg.sender,1);\n    // Trigger an event\n    emit VideoUploaded(videoCount, _videoHash, _title, msg.sender,1);\n  }\n}\n",
  "sourcePath": "/home/admin1/Documents/DappProject/dvideo/src/contracts/DVideo.sol",
  "compiler": {
    "name": "solc",
    "version": "0.5.16+commit.9c3226ce.Emscripten.clang"
  },
  "schemaVersion": "3.2.3",
  "updatedAt": "2021-02-17T15:37:16.571Z",
  "devdoc": {
    "methods": {}
  },
  "userdoc": {
    "methods": {}
  }
}